:020000040000FA
:060000001DEF0CF01200E0
:060800001DEF0CF01200D8
:020808001200DC
:020818001200CC
:06082A0001005818000057
:08083000F800000002000000C6
:08083800060E0001F25D03E36E
:100840006D50020B01E001D001D81200D9CFE6FFB4
:10085000E1CFD9FF070EE126010EDB6A020EDB6A4B
:10086000030EDB6A040EDB6A050EDB6A060EDB6A2A
:10087000400EE66E620EE66E000EE66EEEEC0AF0DC
:10088000E552E552E552000901E18FD00001606BAD
:1008900000016251FF0A75E0120A6CE0030A65E08C
:1008A000DC0A2EE0030A0CE0310A01E06CD0000102
:1008B000646B0001010E656F0001040E606F64D06F
:1008C0000001010E606F0001635103E18C948C966E
:1008D00016D00001630503E18C948C8610D0020EC3
:1008E0000001635D03E18C848C9609D0030E000146
:1008F000635D03E18C848C8602D00001606B44D080
:100900000001630509E100016451E8B08C80E8A0B2
:100910008C900001010E606F020E0001635D09E121
:1009200000016451E8B08C82E8A08C920001010EB5
:10093000606F030E0001635D0AE100016451E8B0DD
:100940008C84E8A08C940001010E606F0DD0040E21
:100950000001635D09E100016451E8B08C86E8A004
:100960008C960001010E606F0FD0A8D80001020E16
:10097000606F0AD079D80001636F0001020E606FCA
:1009800003D0FF0001D000D0000160510EE004014F
:100990000CBF0BD060C0E6FF620EE66E000EE66E86
:1009A000B4EC0AF0E552E552E55200D0070EE15CE6
:1009B00002E2E16AE552E16EE552E7CFD9FF1200AB
:1009C0000001F851F91104E1100EF86F270EF96FCC
:1009D000F807000EF95B6DA20BD0F851F91107E191
:1009E0008C708C50010B02E08C8201D08C922FD045
:1009F0000001F25103E18C908C9229D0F20503E1C1
:100A00008C808C8224D0020EF25D03E18C808C926B
:100A10001ED0030EF25D03E18C908C8218D0050E7F
:100A2000F25D07E10001F851F91102E18C708C923E
:100A30000ED0060EF25D0BE10001F851F91107E14D
:100A40008C708C50010B02E08C9201D08C821200D1
:100A5000D9CFE6FFE1CFD9FFFE0EDB508C6E00D080
:100A6000E552E7CFD9FF1200D9CFE6FFE1CFD9FF9A
:100A7000020EE126C282C2B2FED7C350DF6E010E63
:100A8000C4CFDBFFD890DF32D890DF32DBCFF3FF6B
:100A9000F340E842C00BF36E010EF3CFDBFFDB50F7
:100AA000DF10146E020EE15C03E200D0E16AE55251
:100AB000E16E1450E552E7CFD9FF1200D9CFE6FF1F
:100AC000E1CFD9FF020EE126DE6ADD6ADECF14F047
:100AD000DDCF15F0166AD8901650000A06E6FF0E14
:100AE000145CFF0E1558000E16580DE2C282C2B2F9
:100AF000FED78C50010BE81C010B8C6EDF2A010E17
:100B000001E3DB2AE3D7020EE15C03E200D0E16AF5
:100B1000E552E16EE552E7CFD9FF120000D0120096
:100B2000D9CFE6FFE1CFD9FF020EE126DE6ADD6A0A
:100B3000DECF14F0DDCF15F0FD0EDBCF16F0FE0E8C
:100B4000DBCF17F015501718E8AE02D0173404D0D9
:100B50001650145C1750155805E2DF2A010E01E308
:100B6000DB2AE6D7020EE15C03E200D0E16AE5523F
:100B7000E16EE552E7CFD9FF1200D9CFE6FFE1CF12
:100B8000D9FF020EE126DE6ADD6ADECF14F0DDCF8A
:100B900015F0153404E214500F08000E155432E31A
:100BA000FD0EDB50010B11E0180E956E8C9C010EB2
:100BB000E66EE66AB5DFE552E5528C8C0A0EE66E0B
:100BC000E66AAEDFE552E55209D0180E956E8C9CB0
:100BD0000B0EE66EE66AA4DFE552E552D950FD0F32
:100BE000E96EFF0EDA20EA6E010E0F0B06E0EC5202
:100BF000D890ED32EF32E806FAE1DF2A010E01E388
:100C0000DB2AC3D7020EE15C03E200D0E16AE552C1
:100C1000E16EE552E7CFD9FF1200D9CFE6FFE1CF71
:100C2000D9FF120EE126DE6ADD6ADECF14F0DDCFD9
:100C300015F0153404E214500708000E15545AE359
:100C4000180E956E8C9E980E956E8350800B01E069
:100C5000010EE66ED950040F146EDACF15F0020EB5
:100C6000086E096ADECF0DF0DDCF0EF0D9EC0BF087
:100C700014500624E96E15500720EA6EE552E7503D
:100C8000EE6EED6A080EE66EE66A4ADFE552E55260
:100C9000D950040F146EDACF15F0020E086E096AEF
:100CA000DECF0DF0DDCF0EF0D9EC0BF014500624A2
:100CB000E96E15500720EA6EEE50ED1016E0010EB9
:100CC000DF5206E0DFCFF3FFE846FE0BF306FCE160
:100CD000146E156A14BE1568D950020FE96EDACF8A
:100CE000EAFF1450EE261550ED22DF2A010E01E333
:100CF000DB2A9BD7020EDBCF14F0030EDBCF15F0FF
:100D000014C0F3FF15C0F4FF120EE15C03E200D043
:100D1000E16AE552E16EE552E7CFD9FF1200180E05
:100D2000956E8C9E530EE66EE66AFADEE552E5524B
:100D3000980E956E020EE66EE66AF2DEE552E55218
:100D400000D01200D9CFE6FFE1CFD9FF020EE12695
:100D5000E6DFAA0EE66EE66A10DFE552E5525DDFD9
:100D6000F3CFDEFFF4CFDDFFDECF14F0DDCF15F0E3
:100D700014C0F3FF15C0F4FF020EE15C03E200D0E3
:100D8000E16AE552E16EE552E7CFD9FF1200D9CF13
:100D9000E6FFE1CFD9FF040EE126010EF36E020E4D
:100DA000F3CFDBFF030EDB6A010EDE6EDD6ADECF02
:100DB00014F0DDCF15F0020EDBCF16F0030EDBCF03
:100DC00017F017501518E8AE02D0153404D014509F
:100DD000165C1550175806E3B5DFDF2A010E01E354
:100DE000DB2AE5D79BDE040EE15C03E200D0E16A7A
:100DF000E552E16EE552E7CFD9FF1200F00E8C16F6
:100E000095169280010EC26E3C0EC06EC08E180EFA
:060E1000956E8FEF06F065
:0A0E160004011851600BE842E842A5
:100E2000E842E842E842000901E055D01951070ABA
:100E300051E00B0A4FE0070A40E0010A2CE00B0AE0
:100E400028E0020A26E0030A22E0080A12E0010A6A
:100E50000EE00F0A0AE0030A01E03CD00001010E97
:100E6000EB6F0001040EF26F36D036D834D090D834
:100E700032D00001010EEB6F0001F40EEC6F000E9A
:100E8000ED6F0001F3930001010EF06F24D0A8D89C
:100E900022D0F4D820D00001010EEB6F04011C51C8
:100EA0000001EC6FED6BF50EEC27000EED23000159
:100EB000F3930001010EF06F0ED00001010EEB6FF5
:100EC00004011C51EA6AF50FE96E000EEA221AC409
:100ED000EFFF01D000D01200800E0401185D57E131
:100EE0001B51030A34E0010A10E0030A01E04DD06F
:100EF0000001010EEB6F00015C0EEC6F160EED6F42
:100F0000120E0001F06FF16B40D00001010EEB6F8B
:100F100004011A51F66EF76AD890F636F7360A0EC3
:100F2000F626170EF7220900F5CFECF00A00F5CFF0
:100F3000EDF0020E0001F76AEC25F66EED51F72296
:100F40000900F5CFF0F00A00F5CFF1F01ED0000156
:100F5000010EEB6F04011A51F66EF76AD890F6365F
:100F6000F7360E0EF626170EF7220900F5CFECF035
:100F70000A00F5CFEDF0ECC0F6FFEDC0F7FF08007A
:100F8000F5500001F06FF16B00D00001F383120007
:100F90000001010EEB6F0F0EE66E710EE66E0F0E86
:100FA000E66E8AEC0AF0E552E552E552010EE66E75
:100FB000F50EE66E000EE66E8AEC0AF0E552E5529A
:100FC000E5521AC4F4F004011A5104E10001050EBF
:100FD000F26F05D00001060EF26F9FEC0AF01200CE
:100FE0000401206B216B040118511F0B020A14E04D
:100FF000030A0EE0010A01E033D00001010EEB6F9D
:10100000040120810001F3A102D00401208328D033
:101010000001010EEB6F24D00001010EEB6F040103
:101020001C510F0B080DF350156A000F146E040EBF
:1010300015221C51800B01E0010E040DF35000013C
:101040001424EE6F000E1520EF6FEEC0E9FFEFC025
:10105000EAFFEF50040B03E00401010E206F00D003
:101060000001EB050AE10001200EEC6F040EED6FAC
:101070000001F3930001020EF06F120004011A0543
:1010800010E118511F0B00090CE10001010EEB6F7C
:10109000030E0401195D03E10001F38102D0000198
:1010A000F39104011A513AE118511F0B020836E17D
:1010B0001C510F0B000932E00001010EEB6F04011F
:1010C0001C510F0B080DF350156A000F146E040E1F
:1010D00015221C51800B01E0010E040DF35000019C
:1010E0001424EE6F000E1520EF6F030E0401195D3E
:1010F00007E1840EEEC0E9FFEFC0EAFFEF6E0ED00D
:101100001CAF06D0EEC0E9FFEFC0EAFFEF6A06D0E1
:0E111000880EEEC0E9FFEFC0EAFFEF6E12009E
:02111E006C5013
:1011200002E0000E01D0010E00090BE004010051A5
:101130003C0BE842E8420D0802E10CD801D01CD873
:1011400008D06C5002E0000E01D0010E040901E04D
:1011500023D81200D9CFE6FFE1CFD9FFE652000134
:10116000EA6BEB6BF06BF16B0BEC07F0DDD8E55243
:10117000E552E7CFD9FF1200020E0001EA5D0AE155
:1011800096D8040100BD03D0C80E006F02D0880EAF
:10119000006F01D00FD91200040E0001F25D0AE1C8
:1011A0001AC46EFF6E50000803E2050EF26F02D003
:1011B000030EF26F0001EA050AE10BD8040104BD39
:1011C00003D0C80E046F02D0880E046F01D0F2D88D
:1011D0001200D9CFE6FFE1CFD9FF020EE1260001D0
:1011E000080EF05D000EF15905E2F0C0DEFFF1C01F
:1011F000DDFF03D0080EDE6EDD6A04010493049166
:10120000010EDB500413DFCF05F4000EDB500001AC
:10121000F05F010EDB50F15B200EEE6F040EEF6FFE
:101220000001F3A31ED0D9CFE9FFDACFEAFFEE50D9
:10123000ED1016E0ECC0F6FFEDC0F7FF0800F5502A
:10124000EEC0E9FFEFC0EAFFEF6E0001EE2B000EEB
:10125000EF23EC2BED23DF06010E01E2DB06E3D7E3
:101260001CD0D9CFE9FFDACFEAFFEE50ED1015E040
:10127000ECC0E9FFEDC0EAFFEF50EEC0E9FFEFC0C0
:10128000EAFFEF6E0001EE2B000EEF23EC2BED23B7
:10129000DF06010E01E2DB06E4D7020EE15C02E2AA
:1012A000E16AE552E16EE552E7CFD9FF1200D9CFEE
:1012B000E6FFE1CFD9FF020EE126030E040100157F
:1012C000E76E010EE7CFDBFF01C4DFFFDE50000158
:1012D000F027DD50F123200EEC6F040EED6FD9CF17
:1012E000E9FFDACFEAFFEE50ED1014E0ECC0E9FFC1
:1012F000EDC0EAFFEF50EEC0E9FFEFC0EAFFEF6E8E
:10130000EE2B000EEF23EC2BED23DF06010E01E2A6
:10131000DB06E5D7020EE15C02E2E16AE552E16E2E
:10132000E552E7CFD9FF12000001EB510CE10401B7
:10133000080E016F180E026F040E036F840E006F0B
:101340000401046F35D0040118AF22D00001F05120
:1013500004011E5D0001F15104011F5904E21EC485
:10136000F0F01FC4F1F035DF0001010EEA6F040157
:10137000080E016F180E026F040E036F800E006FCF
:101380000401200E066F040E076FC80E046F10D004
:101390000001020EEA6F0401056BC80E046F040120
:1013A000080E016F200E026F040E036FC80E006F4F
:1013B0006D9812000001EA6B0401080E016F180E0F
:1013C000026F040E036F880E006F0401046B12009D
:1013D0006DA60CD80001F20508E16DBA06D0686A66
:1013E000696A69806988020EF26F12006D6A696A23
:1013F0006D860001010EF26F12006D6A696A0001CC
:10140000F26B1200FDEF09F00001F25101E13AD058
:101410006850040B04E06950040B01E038D86DB249
:1014200031D06850010B04E06950010B01E050D845
:101430006850100B04E06950100B01E024D868508C
:10144000400B04E06950400B01E037D86850200B96
:1014500004E06950200B01E032D86850020B04E030
:101460006950020B01E032D8030E0001F25D01E287
:1014700009D06850080B06E06950080B03E08FECB8
:1014800008F068961200698468986D8212006D9267
:101490006994689412000001F3A10ED0F8DF6D8406
:1014A0000001080EF66F070EF76FF607000EF75BE8
:1014B000F651F711FAE16D941200689C120070A0C9
:1014C00003D0DAEC09F07090689A1200689212006A
:1014D0006A6A686A9F0E6B6E7B0E696E6E6A0F0E8B
:1014E000E66E710EE66E0F0EE66E14D8E552E5520A
:1014F000E552160E706E68A602D06896FCD76D98FD
:10150000DAEC09F00001F3910001F46B0001030E25
:10151000F26F1200D9CFE6FFE1CFD9FFFD0EDBCF8E
:10152000E9FFFE0EDBCFEAFFFC0EDB5004E0EE6AC3
:0E153000FC0EDB06F9D7E552E7CFD9FF12001B
:02153E000001AA
:10154000FA6B1E0E716E0401400E096F280E0A6FB1
:10155000040E0B6F880E086F0401680E0E6F040EE8
:101560000F6F400E0C6F1200D9CFE6FFE1CFD9FF0D
:10157000E652FC0EDB50400805E2400EF36EFC0E16
:10158000F3CFDBFFDF6AFC0EDB50DF5C19E2DF50DC
:10159000E76EFD0EDBCFE9FFFE0EDBCFEAFFE75083
:1015A000E926000EEA22EF50E66EDF50EA6A680F85
:1015B000E96E040EEA22E552E750EF6EDF2AE3D728
:1015C000FC0EDBCF0DF4400E04010C170C7D880ED1
:1015D0000C13E552E552E7CFD9FF1200D9CFE6FF51
:1015E000E1CFD9FF0001FA6B040108BF30D0FC0E37
:1015F000DBCF14F00951D880145403E2FC0E09C467
:10160000DBFF0001FA6BFC0EDB50FA5D19E2FA51C8
:10161000EA6A280FE96E040EEA22EF50E66EFA51EC
:10162000E76EFD0EDBCFE9FFFE0EDBCFEAFFE750F2
:10163000E926000EEA22E552E750EF6EFA2BE3D7D7
:101640000401400E096F0817087D880E0813000179
:0C165000FA5100D0E552E7CFD9FF12009C
:04165C001201000275
:1016600000000008D8040C0000000102000109027B
:101670002000010100803209040000020000000087
:1016800007050102400020070581024000200403F5
:10169000090434034D006900630072006F006300A9
:1016A0006800690070002000540065006300680055
:1016B0006E006F006C006F00670079002000490029
:1016C0006E0063002E0044035000490043004400B4
:1016D00045004D00200046005300200055005300F7
:1016E00042002000440065006D006F0020004200B1
:1016F0006F00610072006400200028004300290090
:10170000200032003000300034006E166E168E1647
:041710009216C61651
:0C1714002A0EF66E080EF76E000EF86E3E
:1017200000010900F550E56F0900F550E66F03E18F
:10173000E56701D03DD00900F550E06F0900F55094
:10174000E16F0900F550E26F09000900F550E96EFC
:101750000900F550EA6E090009000900F550E36F31
:101760000900F550E46F09000900F6CFE7F0F7CF64
:10177000E8F0F8CFE9F0E0C0F6FFE1C0F7FFE2C023
:10178000F8FF0001E35302E1E45307E00900F550DC
:10179000EE6EE307F8E2E407F9D7E7C0F6FFE8C02A
:1017A000F7FFE9C0F8FF0001E507000EE65BBFD7D1
:0217B000120025
:0E17B20009C013F008C012F008500D02F4CF69
:1017C00007F0F3CF06F009500E02F4CF09F0F3CF83
:1017D00008F00D02F3500726F4500822E86A0922A7
:1017E00012500E02F3500726F4500822E86A09222C
:1017F0000EAEFFEF0BF01250085E1350095A13AEF5
:0C180000000C0D50085E0E50095A000C40
:04180C0005D80ED815
:101810001CEC04F0FCD71200140E6F6E0001F26B8A
:101820000001F36B0001F46BFEEF06F0E8EC09F049
:0A1830006FBE02D004EC0AF01200B3
:06183A0013EE00F023EEA6
:1018400000F0F86A019C8AEC0BF02BEC0CF006EC33
:061850000CF0FBD71200B2
:0218560012007E
:0218580000008E
:00000001FF
