:020000040000FA
:060000007AEF0CF0120083
:060008000FEF00F01200F2
:080018001AEF00F01200DACF2C
:10002000E4FFE2CFDAFFE6528C82FED7E552E5CF5D
:10003000DAFF1100D8CFE4FFE0CFE4FFE46EDACFBF
:10004000E4FFE2CFDAFFE6528C82FED7E552E5CF3D
:0E005000DAFFE550E5CFE0FFE5CFD8FF100066
:060800007AEF0CF012007B
:06082A000100121900009C
:08083000F700000002000000C7
:08083800060E0001F15D03E36F
:100840006D50020B01E001D001D81200D9CFE6FFB4
:10085000E1CFD9FF0D0EE126010EDB6A020EDB6A45
:10086000030EDB6A040EDB6A050EDB6A060EDB6A2A
:10087000400EE66E610EE66E000EE66E23EC0BF0A7
:10088000E552E552E552000901E1FED0D950070FCB
:10089000E96EDACFEAFF610EEE6E000EED6E070E26
:1008A000DBCF08F0080EDBCF09F0090E08C0DBFF34
:1008B0000A0E09C0DBFF010EE76E070EDBCF14F056
:1008C000080EDBCF15F0E7501426000E15220B0E94
:1008D00014C0DBFF0C0E15C0DBFFD950070FE96E0B
:1008E000DACFEAFF020EEE26000EED220001615182
:1008F000FF0A01E18FD0120A01E178D0030A6CE00F
:10090000DC0A21E0320A01E087D0070EDBCFE9FFE5
:10091000DB2A080EDBCFEAFF01E3DB2AEF6A070ED2
:10092000DBCFE9FFDB2A080EDBCFEAFF01E3DB2A9E
:10093000010EEF6E0B0EDBCFE9FF0C0EDBCFEAFFF3
:10094000040EEF6E85D0000162050EE100016351D7
:10095000E8B08C80E8A08C900B0EDBCFE9FF0C0E8A
:10096000DBCFEAFF010EEF6E020E0001625D0EE1C9
:1009700000016351E8B08C82E8A08C920B0EDBCFB3
:10098000E9FF0C0EDBCFEAFF010EEF6E030E000154
:10099000625D0FE100016351E8B08C84E8A08C94A3
:1009A0000B0EDBCFE9FF0C0EDBCFEAFF010EEF6E83
:1009B00012D0040E0001625D0EE100016351E8B047
:1009C0008C86E8A08C960B0EDBCFE9FF0C0EDBCFFC
:1009D000EAFF010EEF6E3CD0E0D80B0EDBCFE9FF53
:1009E0000C0EDBCFEAFF020EEF6E32D0ACD8E66E13
:1009F000070EDBCFE9FF080EDBCFEAFFE552E75039
:100A0000EF6E0B0EDBCFE9FF0C0EDBCFEAFF020E21
:100A1000EF6E1ED0FF001CD0090EDBCFE9FF0A0EDF
:100A2000DBCFEAFFAA0EEF6E070EDBCFE9FFDB2A72
:100A3000080EDBCFEAFF01E3DB2A010EEF6E0B0E9F
:100A4000DBCFE9FF0C0EDBCFEAFF030EEF6E00D029
:100A50000B0EDBCFE9FF0C0EDBCFEAFFEF5014E00B
:100A600004010CBF11D00B0EDBCFE9FF0C0EDBCF66
:100A7000EAFFEF50E66E610EE66E000EE66EE9EC00
:100A80000AF0E552E552E55200D00D0EE15C02E2BB
:100A9000E16AE552E16EE552E7CFD9FF12000001AD
:100AA000F751F81104E1100EF76F270EF86FF707F2
:100AB000000EF85B6DA20BD0F751F81107E18C70B6
:100AC0008C50010B02E08C8201D08C922FD000015F
:100AD000F15103E18C908C9229D0F10503E18C80D7
:100AE0008C8224D0020EF15D03E18C808C921ED0AA
:100AF000030EF15D03E18C908C8218D0050EF15D40
:100B000007E10001F751F81102E18C708C920ED0D0
:100B1000060EF15D0BE10001F751F81107E18C7051
:100B20008C50010B02E08C9201D08C821200D9CF44
:100B3000E6FFE1CFD9FFFE0EDB508C6E00D0E55210
:100B4000E7CFD9FF1200D9CFE6FFE1CFD9FF020EE0
:100B5000E126C282C2B2FED7C350DF6E010EC4CFFF
:100B6000DBFFD890DF32D890DF32DBCFF3FFF340EA
:100B7000E842C00BF36E010EF3CFDBFFDB50DF105A
:100B8000146E020EE15C03E200D0E16AE552E16E10
:100B90001450E552E7CFD9FF1200D9CFE6FFE1CFDD
:100BA000D9FF020EE126DE6ADD6ADECF14F0DDCF6A
:100BB00015F0166AD8901650000A06E6FF0E145C6F
:100BC000FF0E1558000E16580DE2C282C2B2FED7B3
:100BD0008C50010BE81C010B8C6EDF2A010E01E327
:100BE000DB2AE3D7020EE15C03E200D0E16AE552C2
:100BF000E16EE552E7CFD9FF120000D01200D9CF45
:100C0000E6FFE1CFD9FF020EE126DE6ADD6ADECF24
:100C100014F0DDCF15F0FD0EDBCF16F0FE0EDBCFAE
:100C200017F015501718E8AE02D0173404D016503C
:100C3000145C1750155805E2DF2A010E01E3DB2A88
:100C4000E6D7020EE15C03E200D0E16AE552E16E14
:100C5000E552E7CFD9FF1200D9CFE6FFE1CFD9FFA8
:100C6000020EE126DE6ADD6ADECF14F0DDCF15F07C
:100C7000153404E214500F08000E155432E3FD0E33
:100C8000DB50010B11E0180E956E8C9C010EE66E88
:100C9000E66AB5DFE552E5528C8C0A0EE66EE66A2E
:100CA000AEDFE552E55209D0180E956E8C9C0B0E06
:100CB000E66EE66AA4DFE552E552D950FD0FE96E13
:100CC000FF0EDA20EA6E010E0F0B06E0EC52D89010
:100CD000ED32EF32E806FAE1DF2A010E01E3DB2A0A
:100CE000C3D7020EE15C03E200D0E16AE552E16E97
:100CF000E552E7CFD9FF1200D9CFE6FFE1CFD9FF08
:100D0000120EE126DE6ADD6ADECF14F0DDCF15F0CB
:100D1000153404E214500708000E15545AE3180E57
:100D2000956E8C9E980E956E8350800B01E0010E9F
:100D3000E66ED950040F146EDACF15F0020E086E6D
:100D4000096ADECF0DF0DDCF0EF00EEC0CF0145082
:100D50000624E96E15500720EA6EE552E750EE6E64
:100D6000ED6A080EE66EE66A4ADFE552E552D950B2
:100D7000040F146EDACF15F0020E086E096ADECF8A
:100D80000DF0DDCF0EF00EEC0CF014500624E96EE1
:100D900015500720EA6EEE50ED1016E0010EDF52FE
:100DA00006E0DFCFF3FFE846FE0BF306FCE1146E2E
:100DB000156A14BE1568D950020FE96EDACFEAFF42
:100DC0001450EE261550ED22DF2A010E01E3DB2A36
:100DD0009BD7020EDBCF14F0030EDBCF15F014C04F
:100DE000F3FF15C0F4FF120EE15C03E200D0E16AEC
:100DF000E552E16EE552E7CFD9FF1200180E956E6D
:100E00008C9E530EE66EE66AFADEE552E552980EC7
:100E1000956E020EE66EE66AF2DEE552E55200D00D
:100E20001200D9CFE6FFE1CFD9FF020EE126E6DFBF
:100E3000AA0EE66EE66A10DFE552E5525DDFF3CFFB
:100E4000DEFFF4CFDDFFDECF14F0DDCF15F014C0F0
:100E5000F3FF15C0F4FF020EE15C03E200D0E16A8B
:100E6000E552E16EE552E7CFD9FF120000D0120043
:100E7000C180C182C184C1869380959095921200F1
:100E800004011851600BE842E842E842E842E842B7
:100E9000000901E055D01951070A51E00B0A4FE053
:100EA000070A40E0010A2CE00B0A28E0020A26E0CB
:100EB000030A22E0080A12E0010A0EE00F0A0AE023
:100EC000030A01E03CD00001010EEA6F0001040EAC
:100ED000F16F36D036D834D090D832D00001010E20
:100EE000EA6F0001F30EEB6F000EEC6F0001F2935E
:100EF0000001010EEF6F24D0A8D822D0F4D820D062
:100F00000001010EEA6F04011C510001EB6FEC6B54
:100F1000F40EEB27000EEC230001F2930001010E0A
:100F2000EF6F0ED00001010EEA6F04011C51EA6A56
:100F3000F40FE96E000EEA221AC4EFFF01D000D0D0
:100F40001200800E0401185D57E11B51030A34E0C2
:100F5000010A10E0030A01E04DD00001010EEA6F22
:100F60000001C60EEB6F160EEC6F120E0001EF6F54
:100F7000F06B40D00001010EEA6F04011A51F66EC9
:100F8000F76AD890F636F736740EF626170EF72263
:100F90000900F5CFEBF00A00F5CFECF0020E0001EE
:100FA000F76AEB25F66EEC51F7220900F5CFEFF06A
:100FB0000A00F5CFF0F01ED00001010EEA6F040127
:100FC0001A51F66EF76AD890F636F736780EF6268E
:100FD000170EF7220900F5CFEBF00A00F5CFECF081
:100FE000EBC0F6FFECC0F7FF0800F5500001EF6F13
:100FF000F06B00D00001F28312000001010EEA6FD5
:101000000F0EE66E710EE66E0F0EE66EBFEC0AF086
:10101000E552E552E552010EE66EF40EE66E000E64
:10102000E66EBFEC0AF0E552E552E5521AC4F3F061
:1010300004011A5104E10001050EF16F05D0000111
:10104000060EF16FD4EC0AF012000401206B216B44
:10105000040118511F0B020A14E0030A0EE0010AF2
:1010600001E033D00001010EEA6F0401208100018C
:10107000F2A102D00401208328D00001010EEA6F02
:1010800024D00001010EEA6F04011C510F0B080D62
:10109000F350156A000F146E040E15221C51800BBC
:1010A00001E0010E040DF35000011424ED6F000E59
:1010B0001520EE6FEDC0E9FFEEC0EAFFEF50040B24
:1010C00003E00401010E206F00D00001EA050AE1EF
:1010D0000001200EEB6F040EEC6F0001F293000193
:1010E000020EEF6F120004011A0510E118511F0BD8
:1010F00000090CE10001010EEA6F030E0401195D05
:1011000003E10001F28102D00001F29104011A51C1
:101110003AE118511F0B020836E11C510F0B000970
:1011200032E00001010EEA6F04011C510F0B080DA3
:10113000F350156A000F146E040E15221C51800B1B
:1011400001E0010E040DF35000011424ED6F000EB8
:101150001520EE6F030E0401195D07E1840EEDC04A
:10116000E9FFEEC0EAFFEF6E0ED01CAF06D0EDC077
:10117000E9FFEEC0EAFFEF6A06D0880EEDC0E9FF96
:08118000EEC0EAFFEF6E120061
:081188006C5002E0000E01D0E2
:10119000010E00090BE0040100513C0BE842E8425B
:1011A0000D0802E10CD801D01CD808D06C5002E028
:1011B000000E01D0010E040901E023D81200D9CF9E
:1011C000E6FFE1CFD9FFE6520001E96BEA6BEF6B76
:1011D000F06B40EC07F0DDD8E552E552E7CFD9FFE0
:1011E0001200020E0001E95D0AE196D8040100BD7B
:1011F00003D0C80E006F02D0880E006F01D00FD947
:101200001200040E0001F15D0AE11AC46EFF6E5077
:10121000000803E2050EF16F02D0030EF16F00012A
:10122000E9050AE10BD8040104BD03D0C80E046F20
:1012300002D0880E046F01D0F2D81200D9CFE6FF99
:10124000E1CFD9FF020EE1260001080EEF5D000E8E
:10125000F05905E2EFC0DEFFF0C0DDFF03D0080E5D
:10126000DE6EDD6A040104930491010EDB50041369
:10127000DFCF05F4000EDB500001EF5F010EDB5005
:10128000F05B200EED6F040EEE6F0001F2A31ED096
:10129000D9CFE9FFDACFEAFFEE50ED1016E0EBC050
:1012A000F6FFECC0F7FF0800F550EDC0E9FFEEC017
:1012B000EAFFEF6E0001ED2B000EEE23EB2BEC238B
:1012C000DF06010E01E2DB06E3D71CD0D9CFE9FF30
:1012D000DACFEAFFEE50ED1015E0EBC0E9FFECC00D
:1012E000EAFFEF50EDC0E9FFEEC0EAFFEF6E00014C
:1012F000ED2B000EEE23EB2BEC23DF06010E01E2BB
:10130000DB06E4D7020EE15C02E2E16AE552E16E3F
:10131000E552E7CFD9FF1200D9CFE6FFE1CFD9FFE1
:10132000020EE126030E04010015E76E010EE7CF61
:10133000DBFF01C4DFFFDE500001EF27DD50F023AB
:10134000200EEB6F040EEC6FD9CFE9FFDACFEAFF86
:10135000EE50ED1014E0EBC0E9FFECC0EAFFEF50F7
:10136000EDC0E9FFEEC0EAFFEF6EED2B000EEE23BD
:10137000EB2BEC23DF06010E01E2DB06E5D7020EC4
:10138000E15C02E2E16AE552E16EE552E7CFD9FFA6
:1013900012000001EA510CE10401080E016F180E61
:1013A000026F040E036F840E006F0401046F35D0CA
:1013B000040118AF22D00001EF5104011E5D0001AD
:1013C000F05104011F5904E21EC4EFF01FC4F0F0F5
:1013D00035DF0001010EE96F0401080E016F180EE0
:1013E000026F040E036F800E006F0401200E066F63
:1013F000040E076FC80E046F10D00001020EE96FD3
:101400000401056BC80E046F0401080E016F200E65
:10141000026F040E036FC80E006F6D98120000017A
:10142000E96B0401080E016F180E026F040E036FC2
:0A143000880E006F0401046B120027
:06143A006DA60CD80001B4
:10144000F10508E16DBA06D0686A696A6980698841
:10145000020EF16F12006D6A696A6D860001010E5D
:10146000F16F12006D6A696A0001F16B120032EFD0
:101470000AF00001F15101E13AD06850040B04E098
:101480006950040B01E038D86DB231D06850010BBF
:1014900004E06950010B01E050D86850100B04E0E3
:1014A0006950100B01E024D86850400B04E06950EB
:1014B000400B01E037D86850200B04E06950200B46
:1014C00001E032D86850020B04E06950020B01E0E1
:1014D00032D8030E0001F15D01E209D06850080B1B
:1014E00006E06950080B03E0C4EC08F068961200AF
:1014F000698468986D8212006D92699468941200F4
:101500000001F2A10ED0F8DF6D840001080EF56F26
:10151000070EF66FF507000EF65BF551F611FAE1CE
:101520006D941200689C120070A003D00FEC0AF0BA
:101530007090689A1200689212006A6A686A9F0E38
:101540006B6E7B0E696E6E6A0F0EE66E710EE66E46
:101550000F0EE66E14D8E552E552E552160E706E87
:1015600068A602D06896FCD76D980FEC0AF00001CF
:10157000F2910001F36B0001030EF16F1200D9CF5D
:10158000E6FFE1CFD9FFFD0EDBCFE9FFFE0EDBCF9B
:10159000EAFFFC0EDB5004E0EE6AFC0EDB06F9D736
:0815A000E552E7CFD9FF12006C
:0815A8000001F96B1E0E716ECB
:1015B0000401400E096F280E0A6F040E0B6F880E8F
:1015C000086F0401680E0E6F040E0F6F400E0C6F53
:1015D0001200D9CFE6FFE1CFD9FFE652FC0EDB5077
:1015E000400805E2400EF36EFC0EF3CFDBFFDF6A2E
:1015F000FC0EDB50DF5C19E2DF50E76EFD0EDBCF47
:10160000E9FFFE0EDBCFEAFFE750E926000EEA22F3
:10161000EF50E66EDF50EA6A680FE96E040EEA22C8
:10162000E552E750EF6EDF2AE3D7FC0EDBCF0DF477
:10163000400E04010C170C7D880E0C13E552E55288
:10164000E7CFD9FF1200D9CFE6FFE1CFD9FF0001E4
:10165000F96B040108BF30D0FC0EDBCF14F0095148
:10166000D880145403E2FC0E09C4DBFF0001F96BBF
:10167000FC0EDB50F95D19E2F951EA6A280FE96EB8
:10168000040EEA22EF50E66EF951E76EFD0EDBCF55
:10169000E9FFFE0EDBCFEAFFE750E926000EEA2263
:1016A000E552E750EF6EF92BE3D70401400E096FC6
:1016B0000817087D880E08130001F95100D0E55283
:0616C000E7CFD9FF120084
:0A16C6001201000200000008D80421
:1016D0000C0000000102000109022000010100804D
:1016E000320904000002000000000705010240006A
:1016F00020070581024000200403090434034D0043
:101700006900630072006F00630068006900700088
:10171000200054006500630068006E006F006C00DC
:101720006F0067007900200049006E0063002E0002
:101730004403500049004300440045004D00200090
:101740004600530020005500530042002000440092
:1017500065006D006F00200042006F0061007200A4
:1017600064002000280043002900200032003000DF
:0E17700030003400D816D816F816FC163017C4
:02177E002A0E31
:10178000F66E080EF76E000EF86E00010900F550B7
:10179000E46F0900F550E56F03E1E46701D03DD047
:1017A0000900F550DF6F0900F550E06F0900F550B2
:1017B000E16F09000900F550E96E0900F550EA6E85
:1017C000090009000900F550E26F0900F550E36FC8
:1017D00009000900F6CFE6F0F7CFE7F0F8CFE8F020
:1017E000DFC0F6FFE0C0F7FFE1C0F8FF0001E25301
:1017F00002E1E35307E00900F550EE6EE207F8E27C
:10180000E307F9D7E6C0F6FFE7C0F7FFE8C0F8FF47
:0C1810000001E407000EE55BBFD71200EA
:04181C0009C013F0FC
:1018200008C012F008500D02F4CF07F0F3CF06F015
:1018300009500E02F4CF09F0F3CF08F00D02F35077
:101840000726F4500822E86A092212500E02F350CB
:101850000726F4500822E86A09220EAE34EF0CF095
:101860001250085E1350095A13AE000C0D50085E5A
:061870000E50095A000CA5
:0A187600D9CFE6FFE1CFD9FFE5521C
:10188000E7CFD9FF12001200D9CFE6FFE1CFD9FF91
:10189000E552E7CFD9FF12001200D9CFE6FFE1CF22
:1018A000D9FFD08ED59ED58CD59AD596D584D582A4
:1018B000D580F28AF294F28CF28EF184D58EE552C4
:0618C000E7CFD9FF120082
:0A18C6000DD8D08EF28CF28EF29253
:1018D000F2888C9208D81CEC04F036EC07F0FAD7AA
:1018E000120038EF07F01DEC0AF06FBE02D039ECA1
:0418F0000AF01200E8
:0C18F40013EE00F023EE00F0F86A019CF7
:10190000BFEC0BF088EC0CF063EC0CF0FBD7120092
:021910001200C3
:021912000000D3
:00000001FF
